:020000040800F2
:1000000000280020F104000881040008870400088B
:100010008D04000893040008990400080000000003
:100020000000000000000000000000009F04000825
:10003000AB04000800000000B7040008C304000877
:100040003905000839050008390500083905000898
:100050003905000839050008390500083905000888
:100060003905000839050008390500083905000878
:100070003905000839050008390500083905000868
:100080003905000839050008390500083905000858
:100090003905000839050008390500083905000848
:1000A0003905000839050008390500083905000838
:1000B000D1040008390500080000000039050008D7
:1000C00039050008000000000000000039050008A4
:1000D0000000000039050008390500080000000094
:1000E000390500083905000839050008000000003E
:1000F0000000000000000000000000000000000000
:0C01000000000000000000005FF808F1A3
:10010C0010B5054C237833B9044B13B10448AFF345
:10011C0000800123237010BD0C00002000000000A3
:10012C008021000808B5034B1BB103490348AFF30A
:10013C00008008BD00000000100000208021000895
:10014C0080B582B000AF00F0F3F900F02FF800F0AA
:10015C00EFF800F069F80421134801F087F9082141
:10016C00114801F083F904237B6057233B60322054
:10017C0000F040FA7B68592B01DD05237B603B685E
:10018C0013F1590F01DA55233B60074B1B687A6852
:10019C00DA63054B1B683A689A637B6805337B60AE
:1001AC003B68033B3B60E2E72800002080B590B041
:1001BC0000AF07F1180328220021184601F0D2FFE6
:1001CC003B1D00221A605A609A60DA601A610223A1
:1001DC00BB610123BB621023FB6200237B6307F12D
:1001EC001803184600F0B2FC0346002B01D000F0B7
:1001FC00B5F80F237B600023BB600023FB604FF43A
:10020C0080633B614FF4E0637B613B1D002118462A
:10021C0000F01CFF0346002B01D000F09FF800BF3C
:10022C004037BD4680BD000080B58EB000AF07F1F1
:10023C00280300221A605A609A60DA6007F12003E2
:10024C0000221A605A603B1D00221A605A609A60A4
:10025C00DA601A615A619A61344B4FF080421A602D
:10026C00324BA0225A60314B00229A602F4B4FF434
:10027C007A72DA602D4B00221A612C4B80229A6123
:10028C002A4801F04BF80346002B01D000F066F829
:10029C004FF48053BB6207F128031946234801F041
:1002AC0047FB0346002B01D000F058F81F4801F023
:1002BC0084F80346002B01D000F050F800233B6279
:1002CC0000237B6207F120031946184801F0BCFE9D
:1002DC000346002B01D000F041F860237B60002323
:1002EC00BB600223FB6000237B613B1D042219468B
:1002FC000E4801F05FFA0346002B01D000F02EF8F7
:10030C004FF4FA73BB603B1D08221946074801F0F5
:10031C0051FA0346002B01D000F020F8034800F0FE
:10032C0079F800BF3837BD4680BD00BF28000020DB
:10033C0080B483B000AF084B9B69074A43F00403B9
:10034C009361054B9B6903F004037B607B6800BFE2
:10035C000C37BD4680BC70470010024080B400AF23
:10036C0072B600BFFEE7000080B485B000AF154B3D
:10037C009B69144A43F001039361124B9B6903F090
:10038C000103BB60BB680F4BDB690E4A43F0805323
:10039C00D3610C4BDB6903F080537B607B680A4BA9
:1003AC005B68FB60FB6823F0E063FB60FB6843F079
:1003BC008063FB60044AFB68536000BF1437BD4682
:1003CC0080BC7047001002400000014080B584B032
:1003DC0000AF78607B681B68B3F1804F13D10C4B76
:1003EC00DB690B4A43F00103D361094BDB6903F072
:1003FC000103FB60FB68002200211C2000F0F5F9D2
:10040C001C2000F00EFA00BF1037BD4680BD00BFA7
:10041C000010024080B588B000AF786007F110037F
:10042C0000221A605A609A60DA607B681B68B3F12C
:10043C00804F17D10D4B9B690C4A43F00403936119
:10044C000A4B9B6903F00403FB60FB6806233B61CA
:10045C0002237B610223FB6107F110031946044858
:10046C0000F0FAF900BF2037BD4680BD00100240F5
:10047C000008014080B400AFFEE780B400AFFEE797
:10048C0080B400AFFEE780B400AFFEE780B400AFED
:10049C00FEE780B400AF00BFBD4680BC704780B49F
:1004AC0000AF00BFBD4680BC704780B400AF00BF3A
:1004BC00BD4680BC704780B500AF00F07FF800BF30
:1004CC0080BD000080B500AF024801F06BF800BFA2
:1004DC0080BD00BF2800002080B400AF00BFBD4627
:1004EC0080BC70470C480D490D4A002302E0D458DB
:1004FC00C4500433C4188C42F9D30A4A0A4C002362
:10050C0001E013600432A242FBD3FFF7E5FF01F0D8
:10051C0005FEFFF715FE7047000000200C000020C0
:10052C00C02100080C00002074000020FEE7000031
:10053C0080B500AF084B1B68074A43F010031360EB
:10054C00032000F047F90F2000F008F8FFF70CFF2C
:10055C000023184680BD00BF0020024080B582B049
:10056C0000AF7860124B1A68124B1B7819464FF487
:10057C007A73B3FBF1F3B2FBF3F3184600F05FF9B7
:10058C000346002B01D001230EE07B680F2B0AD809
:10059C00002279684FF0FF3000F027F9064A7B689B
:1005AC001360002300E0012318460837BD4680BDC8
:1005BC0000000020080000200400002080B400AFE0
:1005CC00054B1B781A46054B1B681344034A1360F2
:1005DC0000BFBD4680BC70470800002070000020A2
:1005EC0080B400AF024B1B681846BD4680BC7047F8
:1005FC007000002080B584B000AF7860FFF7F0FF8A
:10060C00B8607B68FB60FB68B3F1FF3F05D00A4B19
:10061C001B781A46FB681344FB6000BFFFF7E0FF32
:10062C000246BB68D31AFA689A42F7D800BF00BFDB
:10063C001037BD4680BD00BF0800002080B485B0D7
:10064C0000AF78607B6803F00703FB600C4BDB6842
:10065C00BB60BA684FF6FF031340BB60FB681A021D
:10066C00BB68134343F0BF6343F40033BB60044ADD
:10067C00BB68D36000BF1437BD4680BC704700BF59
:10068C0000ED00E080B400AF044BDB681B0A03F004
:10069C0007031846BD4680BC704700BF00ED00E064
:1006AC0080B483B000AF0346FB7197F90730002B81
:1006BC000BDBFB7903F01F02064997F907305B0946
:1006CC00012000FA02F241F8232000BF0C37BD468E
:1006DC0080BC704700E100E080B483B000AF0346FB
:1006EC003960FB7197F90730002B0ADB3B68DAB2F3
:1006FC000C4997F907301201D2B20B4483F800234E
:10070C000AE03B68DAB20849FB7903F00F03043BBB
:10071C001201D2B20B441A7600BF0C37BD4680BC16
:10072C00704700BF00E100E000ED00E080B489B04C
:10073C0000AFF860B9607A60FB6803F00703FB61F7
:10074C00FB69C3F10703042B28BF0423BB61FB69BE
:10075C000433062B02D9FB69033B00E000237B61C9
:10076C004FF0FF32BB6902FA03F3DA43BB681A405D
:10077C007B699A404FF0FF317B6901FA03F3D9434F
:10078C007B680B40134318462437BD4680BC70472A
:10079C0080B582B000AF78607B68013BB3F1807F9D
:1007AC0001D301230FE00A4A7B68013B53600F2100
:1007BC004FF0FF30FFF790FF054B00229A60044B7F
:1007CC0007221A60002318460837BD4680BD00BFBB
:1007DC0010E000E080B582B000AF78607868FFF779
:1007EC002DFF00BF0837BD4680BD80B586B000AF79
:1007FC000346B9607A60FB7300237B61FFF742FF0D
:10080C0078617A68B9687869FFF790FF024697F9C2
:10081C000F3011461846FFF75FFF00BF1837BD4673
:10082C0080BD80B582B000AF0346FB7197F90730ED
:10083C001846FFF735FF00BF0837BD4680BD80B5B1
:10084C0082B000AF78607868FFF7A2FF03461846C5
:10085C000837BD4680BD000080B48BB000AF786017
:10086C00396000237B6200233B6248E101227B6AF2
:10087C0002FA03F3FB613B681B68FA691340BB6126
:10088C00BA69FB699A4240F037813B685B68A34ABE
:10089C0093425ED0A14A934275D8A14A934258D054
:1008AC009F4A93426FD89F4A934252D09D4A93429B
:1008BC0069D89D4A93424CD09B4A934263D89B4A39
:1008CC00934246D0994A93425DD8122B2AD8122BC8
:1008DC0059D801A252F823F05F0900083909000821
:1008EC004B0900088D0900089309000893090008BA
:1008FC00930900089309000893090008930900085C
:10090C00930900089309000893090008930900084B
:10091C00930900089309000893090008410900088D
:10092C0055090008824A934213D02CE03B68DB68DF
:10093C003B6229E03B68DB6804333B6224E03B68A4
:10094C00DB6808333B621FE03B68DB680C333B62BF
:10095C001AE03B689B68002B02D104233B6213E036
:10096C003B689B68012B05D108233B627B68FA69C5
:10097C001A6109E008233B627B68FA695A6103E05B
:10098C0000233B6200E000BFBB69FF2B01D87B68F2
:10099C0001E07B6804337B61BB69FF2B02D87B6A67
:1009AC009B0002E07B6A083B9B003B617B691A68F9
:1009BC000F213B6901FA03F3DB431A40396A3B69A7
:1009CC0001FA03F31A437B691A603B685B6803F016
:1009DC008053002B00F09080564B9B69554A43F096
:1009EC0001039361534B9B6903F00103BB60BB682C
:1009FC00514A7B6A9B08023352F82330FB607B6AB6
:100A0C0003F003039B000F2202FA03F3DB43FA68A3
:100A1C001340FB607B68494A93420DD07B68484A7F
:100A2C00934207D07B68474A934201D1022304E0EA
:100A3C00032302E0012300E000237A6A02F00302A0
:100A4C0092009340FA681343FB603B497B6A9B0816
:100A5C000233FA6841F823203B685B6803F4803367
:100A6C00002B06D0384B1A683749BB6913430B600F
:100A7C0006E0354B1A68BB69DB43334913400B6006
:100A8C003B685B6803F40033002B06D02E4B5A688E
:100A9C002D49BB6913434B6006E02B4B5A68BB696D
:100AAC00DB43294913404B603B685B6803F48013BC
:100ABC00002B06D0244B9A682349BB6913438B60E7
:100ACC0006E0214B9A68BB69DB431F4913408B60DE
:100ADC003B685B6803F40013002B06D01A4BDA68F2
:100AEC001949BB691343CB6006E0174BDA68BB6945
:100AFC00DB4315491340CB607B6A01337B623B6857
:100B0C001A687B6A22FA03F3002B7FF4AFAE00BFA6
:100B1C0000BF2C37BD4680BC704700BF00003210B0
:100B2C0000003110000022100000211000001210F3
:100B3C0000001110001002400000014000080140AC
:100B4C00000C0140001001400004014080B586B04B
:100B5C0000AF78607B68002B01D101236CE27B68CD
:100B6C001B6803F00103002B00F08780924B5B683D
:100B7C0003F00C03042B0CD08F4B5B6803F00C03BD
:100B8C00082B12D18C4B5B6803F48033B3F5803F98
:100B9C000BD1894B1B6803F40033002B6CD07B68A2
:100BAC005B68002B68D1012346E27B685B68B3F578
:100BBC00803F06D1804B1B687F4A43F4803313601F
:100BCC002EE07B685B68002B0CD17B4B1B687A4A50
:100BDC0023F480331360784B1B68774A23F480230B
:100BEC0013601DE07B685B68B3F5A02F0CD1724BD2
:100BFC001B68714A43F4802313606F4B1B686E4A69
:100C0C0043F4803313600BE06B4B1B686A4A23F48C
:100C1C0080331360684B1B68674A23F4802313608E
:100C2C007B685B68002B13D0FFF7DAFC386108E0B7
:100C3C00FFF7D6FC02463B69D31A642B01D9032378
:100C4C00FAE15D4B1B6803F40033002BF0D014E089
:100C5C00FFF7C6FC386108E0FFF7C2FC02463B69AF
:100C6C00D31A642B01D90323E6E1534B1B6803F41D
:100C7C000033002BF0D100E000BF7B681B6803F051
:100C8C000203002B63D04C4B5B6803F00C03002B6E
:100C9C000BD0494B5B6803F00C03082B1CD1464B63
:100CAC005B6803F48033002B16D1434B1B6803F0B5
:100CBC000203002B05D07B681B69012B01D001239B
:100CCC00BAE13D4B1B6823F0F8027B685B69DB00E3
:100CDC00394913430B603AE07B681B69002B20D029
:100CEC00364B01221A60FFF77BFC386108E0FFF7F6
:100CFC0077FC02463B69D31A022B01D903239BE1F3
:100D0C002D4B1B6803F00203002BF0D02A4B1B6801
:100D1C0023F0F8027B685B69DB00274913430B6007
:100D2C0015E0264B00221A60FFF75AFC386108E0E8
:100D3C00FFF756FC02463B69D31A022B01D9032359
:100D4C007AE11D4B1B6803F00203002BF0D17B688A
:100D5C001B6803F00803002B3AD07B689B69002BBF
:100D6C0019D0174B01221A60FFF73AFC386108E0E2
:100D7C00FFF736FC02463B69D31A022B01D9032339
:100D8C005AE10D4B5B6A03F00203002BF0D00120FB
:100D9C0000F0A6FA1CE00A4B00221A60FFF720FCB8
:100DAC0038610FE0FFF71CFC02463B69D31A022B9B
:100DBC0008D9032340E100BF00100240000042426A
:100DCC00800442429E4B5B6A03F00203002BE9D184
:100DDC007B681B6803F00403002B00F0A680002343
:100DEC00FB75974BDB6903F08053002B0DD1944BB3
:100DFC00DB69934A43F08053D361914BDB6903F079
:100E0C008053BB60BB680123FB758E4B1B6803F4DE
:100E1C008073002B18D18B4B1B688A4A43F4807368
:100E2C001360FFF7DDFB386108E0FFF7D9FB0246E2
:100E3C003B69D31A642B01D90323FDE0814B1B685A
:100E4C0003F48073002BF0D07B68DB68012B06D198
:100E5C007B4B1B6A7A4A43F0010313622DE07B68DB
:100E6C00DB68002B0CD1764B1B6A754A23F001030F
:100E7C001362734B1B6A724A23F0040313621CE067
:100E8C007B68DB68052B0CD16D4B1B6A6C4A43F0FD
:100E9C00040313626A4B1B6A694A43F00103136231
:100EAC000BE0674B1B6A664A23F001031362644B29
:100EBC001B6A634A23F0040313627B68DB68002B14
:100ECC0015D0FFF78DFB38610AE0FFF789FB02466E
:100EDC003B69D31A41F28832934201D90323ABE028
:100EEC00574B1B6A03F00203002BEED014E0FFF704
:100EFC0077FB38610AE0FFF773FB02463B69D31AB4
:100F0C0041F28832934201D9032395E04C4B1B6A82
:100F1C0003F00203002BEED1FB7D012B05D1484BD6
:100F2C00DB69474A23F08053D3617B68DB69002B74
:100F3C0000F08180424B5B6803F00C03082B61D0FE
:100F4C007B68DB69022B46D13F4B00221A60FFF70E
:100F5C0047FB386108E0FFF743FB02463B69D31AB5
:100F6C00022B01D9032367E0354B1B6803F0007398
:100F7C00002BF0D17B681B6AB3F5803F08D1304B56
:100F8C005B6823F400327B689B682D4913434B60EC
:100F9C002B4B5B6823F474127B68196A7B685B6A61
:100FAC000B43274913434B60274B01221A60FFF771
:100FBC0017FB386108E0FFF713FB02463B69D31AB5
:100FCC00022B01D9032337E01D4B1B6803F0007380
:100FDC00002BF0D02FE01C4B00221A60FFF700FB17
:100FEC00386108E0FFF7FCFA02463B69D31A022B82
:100FFC0001D9032320E0124B1B6803F00073002B74
:10100C00F0D118E07B68DB69012B01D1012313E0DF
:10101C000B4B5B68FB60FB6803F480327B681B6ADC
:10102C009A4206D1FB6803F470127B685B6A9A42A1
:10103C0001D0012300E0002318461837BD4680BDBF
:10104C0000100240007000406000424280B584B045
:10105C0000AF786039607B68002B01D10123D0E0B0
:10106C006A4B1B6803F007033A689A4210D9674B26
:10107C001B6823F0070265493B6813430B60634B05
:10108C001B6803F007033A689A4201D00123B8E0C9
:10109C007B681B6803F00203002B20D07B681B6865
:1010AC0003F00403002B05D0594B5B68584A43F4FA
:1010BC00E06353607B681B6803F00803002B05D0CA
:1010CC00534B5B68524A43F460535360504B5B681C
:1010DC0023F0F0027B689B684D4913434B607B689F
:1010EC001B6803F00103002B40D07B685B68012B6D
:1010FC0007D1474B1B6803F40033002B15D1012398
:10110C007FE07B685B68022B07D1414B1B6803F0C7
:10111C000073002B09D1012373E03D4B1B6803F0D6
:10112C000203002B01D101236BE0394B5B6823F0E8
:10113C0003027B685B68364913434B60FFF750FA38
:10114C00F8600AE0FFF74CFA0246FB68D31A41F24A
:10115C008832934201D9032353E02D4B5B6803F093
:10116C000C027B685B689B009A42EBD1274B1B6897
:10117C0003F007033A689A4210D2244B1B6823F001
:10118C00070222493B6813430B60204B1B6803F09A
:10119C0007033A689A4201D0012332E07B681B684E
:1011AC0003F00403002B08D0194B5B6823F4E062B6
:1011BC007B68DB68164913434B607B681B6803F044
:1011CC000803002B09D0124B5B6823F460527B6838
:1011DC001B69DB000E4913434B6000F021F80246FB
:1011EC000B4B5B681B0903F00F030A49CB5C22FA1B
:1011FC0003F3094A1360094B1B681846FFF7AEF955
:10120C00002318461037BD4680BD00BF00200240A9
:10121C0000100240A821000800000020040000205B
:10122C0090B48AB000AF2A4B3C1D0FCB84E80F0062
:10123C0040F201233B800023FB610023BB610023B0
:10124C007B6200237B6100233B62224B5B68FB616A
:10125C00FB6903F00C03042B02D0082B03D02DE008
:10126C001D4B3B622DE0FB699B0C03F00F0307F158
:10127C002802134413F8243C7B61FB6903F480338C
:10128C00002B13D0134B5B685B0C03F0010307F1CD
:10129C002802134413F8283CBB617B690E4A02FBFD
:1012AC0003F2BB69B2FBF3F37B6204E07B690B4A8C
:1012BC0002FB03F37B627B6A3B6202E0064B3B6200
:1012CC0000BF3B6A18462837BD4690BC704700BF2C
:1012DC00982100080010024000127A0000093D001D
:1012EC0080B485B000AF78600A4B1B680A4AA2FB39
:1012FC0003235B0A7A6802FB03F3FB6000BFFB6805
:10130C005A1EFA60002BF9D100BF00BF1437BD463E
:10131C0080BC704700000020D34D621080B582B0B5
:10132C0000AF78607B68002B01D1012341E07B6822
:10133C0093F83D30DBB2002B06D17B68002283F89A
:10134C003C207868FFF742F87B68022283F83D2046
:10135C007B681A687B6804331946104600F0DAFB88
:10136C007B68012283F846207B68012283F83E20AB
:10137C007B68012283F83F207B68012283F84020A0
:10138C007B68012283F841207B68012283F842208C
:10139C007B68012283F843207B68012283F8442078
:1013AC007B68012283F845207B68012283F83D206D
:1013BC00002318460837BD4680BD80B582B000AF0B
:1013CC0078607B68002B01D1012341E07B6893F8A6
:1013DC003D30DBB2002B06D17B68002283F83C2029
:1013EC00786800F039F87B68022283F83D207B682E
:1013FC001A687B6804331946104600F08BFB7B6837
:10140C00012283F846207B68012283F83E207B680A
:10141C00012283F83F207B68012283F840207B68FF
:10142C00012283F841207B68012283F842207B68EB
:10143C00012283F843207B68012283F844207B68D7
:10144C00012283F845207B68012283F83D2000238C
:10145C0018460837BD4680BD80B483B000AF7860B5
:10146C0000BF0C37BD4680BC7047000080B584B00F
:10147C0000AF786039603B68002B09D17B6893F82A
:10148C003E30DBB2012B14BF01230023DBB222E080
:10149C003B68042B09D17B6893F83F30DBB2012BFE
:1014AC0014BF01230023DBB215E03B68082B09D1E4
:1014BC007B6893F84030DBB2012B14BF012300236F
:1014CC00DBB208E07B6893F84130DBB2012B14BF30
:1014DC0001230023DBB2002B01D0012359E03B6830
:1014EC00002B04D17B68022283F83E2013E03B687A
:1014FC00042B04D17B68022283F83F200BE03B686D
:10150C00082B04D17B68022283F8402003E07B681F
:10151C00022283F841207B681B6801223968184637
:10152C0000F06EFD7B681B681C4A934207D17B68F8
:10153C001B685A6C7B681B6842F400425A647B68D7
:10154C001B68164A934209D07B681B68B3F1804F25
:10155C0004D07B681B68124A934211D17B681B68CC
:10156C009B6803F00703FB60FB68062B10D07B68BD
:10157C001B681A687B681B6842F001021A6007E05E
:10158C007B681B681A687B681B6842F001021A6052
:10159C00002318461037BD4680BD00BF002C01400B
:1015AC000004004080B582B000AF78607B681B6897
:1015BC001B6903F00203022B22D17B681B68DB68DA
:1015CC0003F00203022B1BD17B681B686FF0020235
:1015DC001A617B6801221A777B681B689B6903F090
:1015EC000303002B03D0786800F078FA05E07868E4
:1015FC0000F06BFA786800F07AFA7B6800221A77B0
:10160C007B681B681B6903F00403042B22D17B68E5
:10161C001B68DB6803F00403042B1BD17B681B687D
:10162C006FF004021A617B6802221A777B681B68D0
:10163C009B6903F44073002B03D0786800F04EFADA
:10164C0005E0786800F041FA786800F050FA7B68A1
:10165C0000221A777B681B681B6903F00803082BB0
:10166C0022D17B681B68DB6803F00803082B1BD1B5
:10167C007B681B686FF008021A617B6804221A777A
:10168C007B681B68DB6903F00303002B03D07868CD
:10169C0000F024FA05E0786800F017FA786800F09A
:1016AC0026FA7B6800221A777B681B681B6903F09B
:1016BC001003102B22D17B681B68DB6803F010032E
:1016CC00102B1BD17B681B686FF010021A617B68B2
:1016DC0008221A777B681B68DB6903F44073002BC4
:1016EC0003D0786800F0FAF905E0786800F0EDF9BD
:1016FC00786800F0FCF97B6800221A777B681B681D
:10170C001B6903F00103012B0ED17B681B68DB689E
:10171C0003F00103012B07D17B681B686FF00102FA
:10172C001A61786800F0C8F97B681B681B6903F0C4
:10173C008003802B0ED17B681B68DB6803F0800371
:10174C00802B07D17B681B686FF080021A61786868
:10175C0000F0DBFC7B681B681B6903F04003402B2B
:10176C000ED17B681B68DB6803F04003402B07D16C
:10177C007B681B686FF040021A61786800F0C0F952
:10178C007B681B681B6903F02003202B0ED17B6840
:10179C001B68DB6803F02003202B07D17B681B68D8
:1017AC006FF020021A61786800F0A6FC00BF0837C1
:1017BC00BD4680BD80B584B000AFF860B9607A607A
:1017CC00FB6893F83C30012B01D10223ACE0FB68A1
:1017DC00012283F83C207B680C2B00F29F8001A235
:1017EC0052F823F0251800082919000829190008B7
:1017FC00291900086518000829190008291900087A
:10180C0029190008A7180008291900082919000827
:10181C0029190008E7180008FB681B68B968184606
:10182C0000F0D0F9FB681B689A69FB681B6842F0F2
:10183C0008029A61FB681B689A69FB681B6822F0B6
:10184C0004029A61FB681B689969BB681A69FB689A
:10185C001B680A439A6162E0FB681B68B96818460A
:10186C0000F016FAFB681B689A69FB681B6842F467
:10187C0000629A61FB681B689A69FB681B6822F41A
:10188C0080629A61FB681B689969BB681B691A02C4
:10189C00FB681B680A439A6141E0FB681B68B968E6
:1018AC00184600F05FFAFB681B68DA69FB681B6876
:1018BC0042F00802DA61FB681B68DA69FB681B6896
:1018CC0022F00402DA61FB681B68D969BB681A69EB
:1018DC00FB681B680A43DA6121E0FB681B68B96886
:1018EC00184600F0A9FAFB681B68DA69FB681B68EC
:1018FC0042F40062DA61FB681B68DA69FB681B68FA
:10190C0022F48062DA61FB681B68D969BB681B69C9
:10191C001A02FB681B680A43DA6100E000BFFB682F
:10192C00002283F83C20002318461037BD4680BDAA
:10193C0080B584B000AF786039607B6893F83C3038
:10194C00012B01D10223B3E07B68012283F83C20F8
:10195C007B68022283F83D207B681B689B68FB60D8
:10196C00FB6823F07703FB60FB6823F47F43FB6089
:10197C007B681B68FA689A603B681B68B3F5005F6C
:10198C003ED0B3F5005F00F28780B3F5805F00F0C6
:10199C008580B3F5805F7FD8702B1AD0702B7BD8E5
:1019AC00602B50D0602B77D8502B3CD0502B73D859
:1019BC00402B58D0402B6FD8302B64D0302B6BD8A9
:1019CC00202B60D0202B67D8002B5CD0102B5AD04A
:1019DC0062E07B6818683B6899683B685A683B68AA
:1019EC00DB6800F0EEFA7B681B689B68FB60FB68A9
:1019FC0043F07703FB607B681B68FA689A604EE0E3
:101A0C007B6818683B6899683B685A683B68DB6878
:101A1C0000F0D7FA7B681B689A687B681B6842F4F5
:101A2C0080429A603BE07B6818683B6859683B6869
:101A3C00DB681A4600F04EFA7B681B68502118468A
:101A4C0000F0A5FA2BE07B6818683B6859683B6886
:101A5C00DB681A4600F06CFA7B681B68602118463C
:101A6C0000F095FA1BE07B6818683B6859683B6886
:101A7C00DB681A4600F02EFA7B681B68402118467A
:101A8C0000F085FA0BE07B681A683B681B68194606
:101A9C00104600F07CFA02E000BF00E000BF7B685B
:101AAC00012283F83D207B68002283F83C20002330
:101ABC0018461037BD4680BD80B483B000AF786047
:101ACC0000BF0C37BD4680BC704780B483B000AFFC
:101ADC00786000BF0C37BD4680BC704780B483B0C3
:101AEC0000AF786000BF0C37BD4680BC704780B437
:101AFC0083B000AF786000BF0C37BD4680BC704728
:101B0C0080B483B000AF786000BF0C37BD4680BC9A
:101B1C007047000080B485B000AF786039607B6896
:101B2C001B68FB607B68254A934207D07B68B3F146
:101B3C00804F03D07B68224A934208D1FB6823F084
:101B4C007003FB603B685B68FA681343FB607B685F
:101B5C001A4A934207D07B68B3F1804F03D07B685D
:101B6C00174A934208D1FB6823F44073FB603B682F
:101B7C00DB68FA681343FB60FB6823F080023B6868
:101B8C005B691343FB607B68FA681A603B689A6870
:101B9C007B68DA623B681A687B689A627B68074AE2
:101BAC00934203D13B681A697B681A637B680122F4
:101BBC005A6100BF1437BD4680BC7047002C0140F1
:101BCC000004004080B487B000AF786039607B6857
:101BDC001B6A23F001027B681A627B681B6A7B61BB
:101BEC007B685B683B617B689B69FB60FB6823F0EF
:101BFC007003FB60FB6823F00303FB603B681B680E
:101C0C00FA681343FB607B6923F002037B613B683A
:101C1C009B687A6913437B617B681C4A93420CD1A5
:101C2C007B6923F008037B613B68DB687A691343AB
:101C3C007B617B6923F004037B617B68134A9342CD
:101C4C0011D13B6923F480733B613B6923F400732E
:101C5C003B613B685B693A6913433B613B689B6939
:101C6C003A6913433B617B683A695A607B68FA684E
:101C7C009A613B685A687B685A637B687A691A6216
:101C8C0000BF1C37BD4680BC704700BF002C014014
:101C9C0080B487B000AF786039607B681B6A23F032
:101CAC0010027B681A627B681B6A7B617B685B68CD
:101CBC003B617B689B69FB60FB6823F4E043FB6042
:101CCC00FB6823F44073FB603B681B681B02FA68DB
:101CDC001343FB607B6923F020037B613B689B68AB
:101CEC001B017A6913437B617B681D4A93420DD1BA
:101CFC007B6923F080037B613B68DB681B017A699D
:101D0C0013437B617B6923F040037B617B68144A3E
:101D1C00934213D13B6923F480633B613B6923F409
:101D2C0000633B613B685B699B003A6913433B6111
:101D3C003B689B699B003A6913433B617B683A693A
:101D4C005A607B68FA689A613B685A687B689A6348
:101D5C007B687A691A6200BF1C37BD4680BC70472D
:101D6C00002C014080B487B000AF786039607B688C
:101D7C001B6A23F480727B681A627B681B6A7B6126
:101D8C007B685B683B617B68DB69FB60FB6823F00D
:101D9C007003FB60FB6823F00303FB603B681B686C
:101DAC00FA681343FB607B6923F400737B613B6827
:101DBC009B681B027A6913437B617B681D4A9342C3
:101DCC000DD17B6923F400637B613B68DB681B02EC
:101DDC007A6913437B617B6923F480637B617B6845
:101DEC00144A934213D13B6923F480533B613B6902
:101DFC0023F400533B613B685B691B013A69134355
:101E0C003B613B689B691B013A6913433B617B68EF
:101E1C003A695A607B68FA68DA613B685A687B6891
:101E2C00DA637B687A691A6200BF1C37BD4680BCD6
:101E3C00704700BF002C014080B487B000AF7860C1
:101E4C0039607B681B6A23F480527B681A627B685A
:101E5C001B6A3B617B685B687B617B68DB69FB6051
:101E6C00FB6823F4E043FB60FB6823F44073FB60E6
:101E7C003B681B681B02FA681343FB603B6923F445
:101E8C0000533B613B689B681B033A6913433B61FE
:101E9C007B680F4A934209D17B6923F480437B61B1
:101EAC003B685B699B017A6913437B617B687A6948
:101EBC005A607B68FA68DA613B685A687B681A6416
:101ECC007B683A691A6200BF1C37BD4680BC7047FC
:101EDC00002C014080B487B000AFF860B9607A6024
:101EEC00FB681B6A7B61FB681B6A23F00102FB68C1
:101EFC001A62FB689B693B613B6923F0F0033B6111
:101F0C007B681B013A6913433B617B6923F00A032D
:101F1C007B617A69BB6813437B61FB683A699A61A0
:101F2C00FB687A691A6200BF1C37BD4680BC7047DB
:101F3C0080B487B000AFF860B9607A60FB681B6A48
:101F4C0023F01002FB681A62FB689B697B61FB68DB
:101F5C001B6A3B617B6923F470437B617B681B03C9
:101F6C007A6913437B613B6923F0A0033B61BB6837
:101F7C001B013A6913433B61FB687A699A61FB6800
:101F8C003A691A6200BF1C37BD4680BC704780B4EA
:101F9C0085B000AF786039607B689B68FB60FB683C
:101FAC0023F07003FB603A68FB68134343F00703AC
:101FBC00FB607B68FA689A6000BF1437BD4680BC32
:101FCC00704780B487B000AFF860B9607A603B604E
:101FDC00FB689B687B617B6923F47F437B613B6877
:101FEC001A027B681A43BB6813437A6913437B61FB
:101FFC00FB687A699A6000BF1C37BD4680BC70478D
:10200C0080B487B000AFF860B9607A60BB6803F049
:10201C001F03012202FA03F37B61FB681A6A7B69D6
:10202C00DB431A40FB681A62FB681A6ABB6803F050
:10203C001F03796801FA03F31A43FB681A6200BFA5
:10204C001C37BD4680BC704780B485B000AF78604B
:10205C0039607B6893F83C30012B01D1022341E0BD
:10206C007B68012283F83C207B68022283F83D20A8
:10207C007B681B685B68FB607B681B689B68BB604C
:10208C00FB6823F07003FB603B681B68FA68134322
:10209C00FB607B681B68FA685A607B681B68144A93
:1020AC00934209D07B681B68B3F1804F04D07B68E6
:1020BC001B68104A93420CD1BB6823F08003BB60B1
:1020CC003B685B68BA681343BB607B681B68BA6883
:1020DC009A607B68012283F83D207B68002283F89C
:1020EC003C20002318461437BD4680BC704700BF07
:1020FC00002C01400004004080B483B000AF786035
:10210C0000BF0C37BD4680BC704780B483B000AFB5
:10211C00786000BF0C37BD4680BC704770B5002698
:10212C000C4D0D4C641BA410A64209D100F022F8F2
:10213C0000260A4D0A4C641BA410A64205D170BDA2
:10214C0055F8043B98470136EEE755F8043B9847A1
:10215C000136F2E7B8210008B8210008B8210008C0
:10216C00BC21000803460244934200D1704703F897
:10217C00011BF9E7F8B500BFF8BC08BC9E467047D8
:0C218C00F8B500BFF8BC08BC9E467047C8
:1021980002030405060708090A0B0C0D0E0F1010A0
:1021A80000000000000000000102030406070809FF
:0421B80031010008E9
:0421BC000D01000809
:0C21C0000024F4001000000001000000EA
:04000005080004F1FA
:00000001FF
